:040000003BEF0BF0D7
:1000080000C01EF001C01DF002C01CF003C01BF0B0
:1000180004C01AF005C019F008C018F009C017F09C
:100028000AC016F00BC015F0E1CF27F0E2CF28F098
:10003800E9CF25F0EACF26F0F3CF23F0F4CF24F070
:10004800F5CF22F0F8CF1FF0F7CF20F0F6CF21F050
:10005800A1AA03D0A19A1AEC0AF0F2A205D0F29252
:100068002A2A2AC040F5296AF0A008D0F09084B066
:1000780002D08D8001D08D90010E296E22C0F5FF2F
:100088001FC0F8FF20C0F7FF21C0F6FF23C0F3FF11
:1000980024C0F4FF1EC000F01DC001F01CC002F017
:1000A8001BC003F01AC004F019C005F018C008F00E
:1000B80017C009F016C00AF015C00BF025C0E9FFFB
:0E00C80026C0EAFF27C0E1FF28C0E2FF1100BA
:1000D6001E0E716E100E316E040E326E31C0E1FFCF
:1000E60032C0E2FFE69E31C0E1FF32C0E2FFE69C8D
:1000F600040E3124E16E000E3220E26EE68C180EFC
:100106002D6E040E2E6E2DC0E1FF2EC0E2FFE69E80
:100116002DC0E1FF2EC0E2FFE69C040E2D24E16E09
:10012600000E2E20E26EE68C020E3124E16E000EE9
:100136003220E26E34C0E6FF35C0E6FF010E312400
:10014600E16E000E3220E26E400EE66E31C0E9FF2F
:1001560032C0EAFFEECF00F031C0E1FF32C0E2FF6D
:10016600400E0014E66E31C0E9FF32C0EAFFEECF62
:1001760000F0880E001231C0E1FF32C0E2FF00C07D
:10018600E6FF31C038F032C039F0040E3118006E87
:0601960000C031F0120070
:10019C000B6A0A6A096A00500402F4CF09F0F3CF23
:1001AC0008F001500502F4CF0BF0F3CF0AF0005029
:1001BC000502F3500926F4500A22E86A0B2201507A
:1001CC000402F3500926F4500A22E86A0B2208C0F4
:1001DC0000F009C001F00AC002F00BC003F01200DD
:1001EC000401286B296B42D0498E28813350010AB7
:1001FC00D8B4288350D0498E4ED0498E24BF16D007
:10020C0024C403F00F0E031603C000F0000E016EA1
:10021C000036009001362F0E0024E96E000E0120EE
:10022C00EA6EEECF04F0EECF05F015D024C403F047
:10023C000F0E031603C000F0000E016E0036009086
:10024C0001362B0E0024E96E000E0120EA6EEECF73
:10025C0004F0EECF05F004C0E9FF05C0EAFFEECFD5
:10026C0001F001A402D0010E286F15D020C401F0BA
:10027C001F0E01160150000AB7E020C401F01F0E3A
:10028C0001160150010AB7E020C401F01F0E01163F
:10029C000150020AB2E049AE07D0280E466E040E99
:0A02AC00476E4980020E4A6E1200F0
:1002B60004012251010A0FE120C401F01F0E0116AC
:1002C6000150000A08E1498E2151030A03E1010E9B
:1002D600336E01D0336A2251000AD8A48BD020C4D1
:1002E60001F01F0E01160150020AD8A483D024C4BF
:1002F60001F00F0E01160150000AD8B47BD0498ECA
:1003060024BF16D024C403F00F0E031603C000F05A
:10031600000E016E0036009001362F0E0024E96EA5
:10032600000E0120EA6EEECF04F0EECF05F015D0F8
:1003360024C403F00F0E031603C000F0000E016E76
:100346000036009001362B0E0024E96E000E0120C7
:10035600EA6EEECF04F0EECF05F02151030A07E175
:1003660004C0E1FF05C0E2FF840EE66E43D024C45C
:1003760000F00F0E0016700E026E0F0E036E005088
:100386000226D8B0032A02C0E9FF03C0EAFFFE0E28
:10039600EE14006EEECF01F0FF0E011602C0E1FF73
:1003A60003C0E2FF00C0E6FF01C0E6FF24AF11D0A4
:1003B60004C0E1FF05C0E2FFE66A040E0418006E01
:1003C60000C004F004C0E1FF05C0E2FF400EE66E87
:1003D60011D004C0E1FF05C0E2FF880EE66E040EF0
:1003E6000418006E00C004F004C0E1FF05C0E2FF7F
:0603F600C80EE66E1200C5
:1003FC00498E716A4E6A22C44DF04D50000A03E1D9
:0E040C00100E4C6E03D0200E4C6E5FDE120000
:10041A0004012051800AD8A473D0C00E496E65D059
:10042A00E20E006E170E016E000E026E00C046F05C
:10043A0001C047F002C048F0120E4A6E000E4B6E21
:10044A005FD0030E006E000E016E22C404F0000E8F
:10045A00056E9FDE430E0024E96E000E0120EA6E4F
:10046A00EECF46F0EECF47F0EECF48F0020E46242C
:10047A00F66E000E4720F76E000E4820F86E09004F
:10048A00F5CF00F00900F5CF01F000C04AF001C035
:10049A004BF036D022510001685D23E3030E006E53
:1004AA00000E016E22C404F0000E056E72DE3A0ED2
:1004BA000024E96E000E0120EA6EEECF46F0EECF80
:1004CA0047F0EECF48F046C0F6FF47C0F7FF48C0F6
:1004DA00F8FF0900F5CF00F000C04AF0000E4B6E9D
:1004EA0001D0496A0DD0496A0BD004012351010A8F
:1004FA0097E02351020AA5E02351030ACBE0F3D780
:02050A001200DD
:10050C0020C401F01F0E01160150010A01E08DD02C
:10051C0004012451000A01E088D02151060A3FE170
:10052C0034D04D50010A17E1980E006E170E016E73
:10053C00000E026E120E0026000E0122022200C0D6
:10054C0046F001C047F002C048F0090E4A6E000E9A
:10055C004B6EC00E496E23D04D50010A12E1C10EF4
:10056C00006E170E016E000E026E00C046F001C048
:10057C0047F002C048F0210E4A6E000E4B6EC00EC2
:10058C00496E0DD0800E496E0AD004012351210A08
:10059C00C8E02351220AE0E02351230AF3E020C4EF
:1005AC0001F0600E0116050E006E005004E00132E1
:1005BC00019EFF0FFBD70150010A01E036D022D07B
:1005CC0034D033D06A0E466E000E476E010E4A6E62
:1005DC00000E4B6EC10E496E28D0800E496E23C49E
:1005EC006AF023D0550E466E000E476E010E4A6E11
:1005FC00000E4B6E810E496E18D0800E496E22C4CF
:10060C0055F013D004012151010ADAE02151090AF5
:10061C00D8E02151020AD6E021510A0ADEE021512C
:0C062C00030AE0E021510B0AE8E0120094
:10063800000E4B5C02E1080E4A5C10E24AC003F06F
:100648004BC004F03750000A03E1010E376E05D0A5
:100658003750010A02E1020E376E04D0080E036E0D
:10066800000E046E2BC0E1FF2CC0E2FFE6922BC007
:10067800E1FF2CC0E2FFE6902BC0E9FF2CC0EAFFA7
:10068800EECF00F02BC0E1FF2CC0E2FF04500010B9
:10069800E66E010E2B24E16E000E2C20E26E03C0E4
:1006A800E6FF03504A5C006E04504B58016E00C0D0
:1006B8004AF001C04BF0280E00016C6F040E6D6FFC
:1006C80049B02FD0035004102BE046C0F6FF47C0B6
:1006D800F7FF48C0F8FF0900F5CF00F06CC0E1FF54
:1006E8006DC0E2FF00C0E6FF6C4B6D2B010E462487
:1006F800006E000E4720016E000E4820026E00C0FA
:1007080046F001C047F002C048F0010E035C006EDD
:10071800000E0458016E00C003F001C004F0D2D7E7
:1007280024D00350041021E046C0E9FF47C0EAFF87
:100738006CC0E1FF6DC0E2FFEECFE6FF6C4B6D2BA6
:10074800010E4624006E000E4720016E00C046F0E0
:1007580001C047F0010E035C006E000E0458016EE4
:0C07680000C003F001C004F0DCD7120058
:1007740020C401F0600E0116050E006E005004E066
:100784000132019EFF0FFBD70150000A01E058D04F
:1007940034D0498E080E4C6E53D03DDE51D02CDE41
:1007A4004FD04D0E466E000E476E4980010E4A6EC4
:1007B400498E46D019DD44D07CDD42D04E0E006E09
:1007C400000E016E24510026D8B0012A00C046F064
:1007D40001C047F04980010E4A6E498E31D0498EDE
:1007E4004E0EE16E000EE26E2451E126D8B0E22AEC
:1007F40022C4E6FF25D024D023D004012151050AC8
:10080400C8E02151060AC9E02151090AC8E0215172
:10081400080AC7E02151000ACDE02151010ACCE0C9
:100824002151030AC9E021510A0AC8E021510B0AE7
:10083400D6E02151070ADFE021510C0ADDE0DCD7C4
:020844001200A0
:0E084600160E6F6E9F0E6B6E3B0E696E1200EB
:10085400980E436E170E446E000E456E180E3A6ED7
:10086400180E3B6E000E3C6E060E3D6E180E3E6E6C
:10087400000E3F6EF40E406E170E416E000E426E77
:02088400120060
:10088600366A2BC0E1FF2CC0E2FFE66A040E2B1885
:10089600E16E2CC0E2FF000EE21AE66A000161AFCB
:0608A60001D0619F120069
:0A08AC0000016B5301E02CDE120086
:1008B600010E4F24E96E000E5020EA6EEECF00F0D6
:1008C60000C002F0000E0001635D02E10250625DAD
:1008D60003E262C002F00AD00250625D006E000EB2
:1008E6006359016E00C062F001C063F0036A0250F2
:1008F600035C1CE2280EE96E040EEA6E0350E9263C
:10090600D8B0EA2AEECF00F05FC0E1FF60C0E2FF98
:1009160000C0E6FF010E5F24006E000E6021016E2E
:1009260000C05FF001C060F0032AE1D7000E006E40
:100936006351005C02E16251000828E2010E5D2469
:10094600E16E000E5E20E26E080EE66E020E5D247B
:10095600E16E000E5E20E26E280EE66E040EE66E76
:100966004FC0E9FF50C0EAFFEECF00F000BC07D051
:100976005DC0E1FF5EC0E2FFC80EE66E06D05DC058
:10098600E1FF5EC0E2FF880EE66E19D0010E5D241F
:10099600E16E000E5E20E26E080EE66E020E5D242B
:1009A600E16E000E5E20E26E200EE66E040EE66E2E
:1009B6005DC0E1FF5EC0E2FF840EE66E619F12003D
:1009C6006D9849BE4AD0000161AF28D0020E366E3E
:1009D600010E2B24E16E000E2C20E26EE66A2BC07F
:1009E600E1FF2CC0E2FFC80EE66E010E5D24E16E4B
:1009F600000E5E20E26E080EE66E020E5D24E16ECB
:100A0600000E5E20E26E280EE66E040EE66E5DC0F7
:100A1600E1FF5EC0E2FFC80EE66E1ED0010E5D2449
:100A2600E16E000E5E20E26E080EE66E020E5D249A
:100A3600E16E000E5E20E26E200EE66E040EE66E9D
:100A46005DC0E1FF5EC0E2FF8C0EE66E2BC0E1FFEB
:100A56002CC0E2FF840EE66E7FD0000161BF7CD021
:100A6600040120AF52D04B50275D02E14A50265D6B
:100A760004E226C44AF027C44BF0DBDD010E366ED5
:100A8600010E5D24E16E000E5E20E26E080EE66E3B
:100A9600020E5D24E16E000E5E20E26E200EE66E12
:100AA600040EE66E5DC0E1FF5EC0E2FF800EE66EFC
:100AB6000001696B010E4F24E16E000E5020E26EBC
:100AC600080EE66E020E4F24E16E000E5020E26E16
:100AD600200EE66E040EE66E4FC0E1FF50C0E2FF48
:100AE600840EE66E010E696F020E2B24E16E000E77
:100AF6002C20E26E280EE66E040EE66E2BC0E1FF99
:100B06002CC0E2FFC80EE66E27D0020E366E010E2E
:100B16002B24E16E000E2C20E26EE66A2BC0E1FF6C
:100B26002CC0E2FFC80EE66E010E5D24E16E000EDB
:100B36005E20E26E080EE66E020E5D24E16E000E89
:100B46005E20E26E280EE66E040EE66E5DC0E1FFE4
:0A0B56005EC0E2FFC80EE66E12005A
:100B60006D92699468A403D0FB0E6816FBD712003F
:0A0B70006984EF0E68166D82120012
:040B7A00A19A12002A
:100B7E00040E2B18006E00C02BF04C50080A0AE130
:100B8E0022C46EFF6E50000803E2100E4C6E02D0AF
:100B9E00040E4C6E3650010A3AE1020E2B24E16E21
:100BAE00000E2C20E26E280EE66E040EE66E3DDD83
:100BBE003750020A07E12BC0E1FF2CC0E2FF840E82
:100BCE00E66E24D0040E2B18006E00C02BF02BC046
:100BDE00E9FF2CC0EAFFEECF00F000BC0CD0040EF3
:100BEE002B18006E00C02BF02BC0E1FF2CC0E2FFD3
:100BFE00C80EE66E0BD0040E2B18006E00C02BF044
:100C0E002BC0E1FF2CC0E2FF880EE66E01D034DE71
:020C1E001200C2
:100C200070A01CD04FC0E9FF50C0EAFFEECF01F02A
:100C30000150800A12E12BC0E9FF2CC0EAFFEECF81
:100C400001F0000E000A02E1840E011806E14FC017
:100C5000E1FF50C0E2FF8C0EE66E7090DF0E68166A
:020C6000120080
:100C62003650020A02E126DE1ED00CDE6951000A6D
:100C720019E1010E5D24E16E000E5E20E26E080EA7
:100C8200E66E020E5D24E16E000E5E20E26E200E24
:100C9200E66E040EE66E5DC0E1FF5EC0E2FF8C0E02
:080CA200E66E01D0696B12003F
:100CAA00D4DD386A396A516A526A6A6A686AC6DD84
:100CBA006D8C6E6A716A6D9C566A576A000E575C33
:100CCA0002E1080E565C17E256C000F057C001F068
:100CDA00003600900136003600900136000E0024DE
:100CEA00E16E040E0120E26EE66AE66AE66AE66AE8
:100CFA00564A572AE3D7160E706E68A603D0F70E27
:100D0A006816FBD7496A0001616B626B636B6D9869
:0E0D1A00080E2B6E040E2C6E4D6A4C6A1200F1
:100D28002BC0E9FF2CC0EAFFEECF00F000AE05D0E3
:100D38002BC0E1FF2CC0E2FFE66A376A366A4A6ACE
:0C0D48004B6A496A13DDAEDD3ADE120092
:100D540000017A51000A12E079C000F0000E016E21
:100D64000036009001362B0E0024E96E000E01209F
:100D7400EA6EEECF04F0EECF05F011D079C000F0AA
:100D8400000E016E0036009001362F0E0024E96E2D
:100D9400000E0120EA6EEECF04F0EECF05F0020E55
:100DA4000424E16E000E0520E26E7BC0E6FF7CC0E9
:100DB400E6FF010E0424E16E000E0520E26E7DC004
:100DC400E6FF04C0E9FF05C0EAFFEECF00F004C06F
:100DD400E1FF05C0E2FF400E0014E66E04C0E9FF27
:100DE40005C0EAFFEECF00F0880E001204C0E1FF58
:100DF40005C0E2FF00C0E6FF7A51000A1BE079C09B
:100E040000F0000E016E0036009001362B0E002417
:100E1400026E000E0120036E02C0E9FF03C0EAFF68
:100E2400040EEE18006E02C0E1FF03C0E2FF00C032
:100E3400E6FF1AD079C000F0000E016E0036009073
:100E440001362F0E0024026E000E0120036E02C034
:100E5400E9FF03C0EAFF040EEE18006E02C0E1FFD2
:100E640003C0E2FF00C0E6FF04C000F005C001F0CB
:020E740012006A
:100E7600E20E006E170E016E000E026E0E0E0024BC
:100E8600F66E000E0120F76E000E0220F86E0900C5
:100E9600F5CF03F003C004F00F0E0024F66E000E2B
:100EA6000120F76E000E0220F86E0900F5CF01F062
:100EB6000150035C12E2E20E006E170E016E000E88
:100EC600026E0F0E0024F66E000E0120F76E000E65
:100ED6000220F86E0900F5CF04F0E20E006E170E40
:100EE600016E000E026E100E0024F66E000E01203A
:100EF600F76E000E0220F86E0900F5CF01F00150E2
:100F0600045C12E2E20E006E170E016E000E026E17
:100F1600100E0024F66E000E0120F76E000E022061
:0E0F2600F86E0900F5CF04F004C000F01200D0
:100F340000017C6B7D6B7E6B020E7925F66E000ED4
:100F44007A21F76E000E7B21F86E0900F5CF05F0CB
:100F5400030E7925F66E000E7A21F76E000E7B21C2
:100F6400F86E0900F5CF00F000C003F0000E046E27
:100F740003C001F0006A05500024066E000E012033
:100F8400076E79C008F07AC009F07BC00AF0010E40
:100F94000824F66E000E0920F76E000E0A20F86E83
:100FA4000900F5CF01F00150020A1BE1060E0824E6
:100FB400F66E000E0920F76E000E0A20F86E090086
:100FC400F5CF01F001507C5D0CE2060E0824F66EAC
:100FD400000E0920F76E000E0A20F86E0900F5CF06
:100FE4007CF0010E0824F66E000E0920F76E000E48
:100FF4000A20F86E0900F5CF01F00150040A1BE144
:10100400080E0824F66E000E0920F76E000E0A2062
:10101400F86E0900F5CF01F001507C5D0CE2080E7A
:101024000824F66E000E0920F76E000E0A20F86EF2
:101034000900F5CF7CF008C0F6FF09C0F7FF0AC02D
:10104400F8FF0900F5CF00F000507D25016E000E79
:101054007E21026E01C07DF002C07EF00750025C6A
:1010640002E10650015C01E30FD008C0F6FF09C09D
:10107400F7FF0AC0F8FF0900F5CF00F0005008267A
:0E108400000E09220A2283D77CC000F0120061
:10109200000E00017A1902E1000E791902E1016ADB
:1010A2000AD079C0E9FF7AC0EAFFEECF00F0000E65
:0C10B20000BE010E016E01C000F0120033
:0A10BE00D08EA28AA08AF28E1200E2
:1010C8004C50000A0AE16D6A696A23EC04F06DB6B7
:1010D80002D06D86FCD7010E4C6E4C50010A08E117
:1010E8006DBA06D0686A696A69806988020E4C6EB2
:1010F80068A405D069A403D0FB0E68162DDD6DA287
:1011080002D037DDD6D068A018D069A016D0C9DDC6
:10111800040E4C6E200E0401026F040E036F080EBD
:10112800016F000E0015006E00C000F48C0E001157
:10113800006E00C000F4FE0E681668A805D069A805
:1011480003D012DDEF0E681668AC04D069AC02D08B
:10115800BF0E681668AA03D069AA01D05DDD68A22F
:1011680002D069B26A6A040E4C5C02E202DDA1D0C8
:1011780069A69ED000017A6B040E7A5DD8B098D02B
:1011880068A692D06CCF5CF0F70E6816780E5C14E7
:10119800016E0150000AD8A486D0FD0E5C14016EC1
:1011A800026AFF0E0216000E021802E1000E011874
:1011B8006CE17E0E5C14016E01C003F00332039EE5
:1011C80003C000F0000E016E0036009001360036B4
:1011D80000900136000E0024026E040E0120036EFA
:1011E80002C04FF003C050F002C05DF003C05EF0D3
:1011F800040E5D18006E00C05DF002C0E9FF03C078
:10120800EAFFEECF00F000C001F03C0E01160132FB
:10121800019E0132019E01500D0A35E1020E4F2454
:10122800E96E000E5020EA6EEECF01F0EECF02F02C
:101238000250040A02E1280E011823E10001020EFF
:101248004F24E16E000E5020E26E200EE66E040E72
:10125800E66E796B080E795D14E2200EE16E040EDD
:10126800E26E7951E126D8B0E22A280EE96E040E22
:10127800EA6E7951E926D8B0EA2AEECFE6FF792B53
:10128800E9D74EDD01D0E9DC0DD0FD0E5C14016E0E
:10129800026AFF0E0216000E021802E1040E01187F
:1012A80001E169DC00D001D003D000017A2B64D7BA
:0412B80060DC1200E4
:1012BC004C50000A0BE16D6A696A23EC04F0F9DE0C
:0E12CC006DB602D06D86FCD7010E4C6E12007E
:1012DA000001786B200E4C5C03E36DB201D002D0A2
:1012EA00006A2DD038C079F039C07AF0CDDE0052CC
:1012FA0025E138C076F039C077F0000E391802E1DE
:10130A00000E38180AE0010E7625E96E000E7721E4
:10131A00EA6EEECF00F000C078F075C079F07A6B13
:10132A0072C07BF073C07CF074C07DF00EDD00C02B
:10133A0038F001C039F078C000F001D0006A12001C
:10134A00200E4C5C03E36DB201D002D0006A4ED08D
:10135A0051C079F052C07AF097DE005246E175C06A
:10136A0079F0010E7A6F72C07BF073C07CF074C0A2
:10137A007DF0EBDC00C051F001C052F0586A596AA6
:10138A005A6A5B6A51C079F052C07AF07DDE005227
:10139A0016E0200E4C5C03E36DB201D002D0006A65
:1013AA0025D0010E016E0150000A01E188DE585075
:1013BA0059105A105B1002E0006A18D0E3D751C0E6
:1013CA0076F052C077F0000E521802E1000E511862
:1013DA000AE0010E00017625E96E000E7721EA6E19
:0E13EA00EECF00F003D0006A01D0006A1200BE
:1013F8003EDD00C072F0980E0001796F170E7A6F0B
:10140800000E7B6F93DD00C073F07251005C03E245
:0C14180072C000F002D073C000F012009F
:101424000900F5CFE6FF0006FBE10106F9E1120031
:101434004C50010A07E16DBA05D0686A6980698871
:10144400020E4C6E68A406D069A404D0FB0E681684
:10145400B0EC05F06DA203D0BDEC05F0DDD068A0C2
:1014640018D069A016D01FDC040E4C6E200E0401A7
:10147400026F040E036F080E016F000E0015006E5C
:1014840000C000F48C0E0011006E00C000F4FE0ECB
:10149400681668A806D069A804D0B8EC05F0EF0E69
:1014A400681668AC04D069AC02D0BF0E681668AA8E
:1014B40004D069AA02D010EC06F068A202D069B286
:1014C4006A6A040E4C5C03E2BDEC05F0A5D069A683
:1014D400A1D00001806B040E805DD8B09BD068A6BB
:1014E40095D06CCF5CF0F70E6816780E5C14016E24
:1014F4000150000AD8A489D0FD0E5C14016E026A62
:10150400FF0E0216000E021802E1000E01186EE131
:101514007E0E5C14016E01C003F00332039E03C00F
:1015240000F0000E016E0036009001360036009087
:101534000136000E0024026E040E0120036E02C068
:101544004FF003C050F002C05DF003C05EF0040E23
:101554005D18006E00C05DF002C0E9FF03C0EAFF41
:10156400EECF00F000C001F03C0E01160132019EE6
:101574000132019E01500D0A36E1020E4F24E96E3C
:10158400000E5020EA6EEECF01F0EECF02F00250D2
:10159400040A02E1280E011823E10001020E4F247F
:1015A400E16E000E5020E26E200EE66E040EE66E32
:1015B4007F6B080E7F5D14E2200EE16E040EE26E76
:1015C4007F51E126D8B0E22A280EE96E040EEA6EB5
:1015D4007F51E926D8B0EA2AEECFE6FF7F2BE9D780
:1015E40094EC06F002D031EC06F00ED0FD0E5C1443
:1015F400016E026AFF0E0216000E021802E1040ECA
:10160400011802E1BFEC05F000D001D003D00001C5
:0A161400802B61D7BDEC05F0120039
:10161E00ECDE00C068F0010E6B6F6EC034F06FC070
:10162E0035F070C053F071C054F055EC06F0010E59
:0C163E00016E0150010A01E13ADE1200C9
:10164A0034C072F035C073F0400E0001746F010EA1
:06165A00756F3EDE120078
:101660006EC072F06FC073F070C074F0010E0001B4
:06167000756F6BDE120035
:10167600020E296E2A6A0F0EC16E070EB46E816ABB
:101686008A6A938093829384F18E846A8D6A969295
:101696009690000E00016E6F050E6F6F400E706F14
:1016A600050E716FB9DF030E0B6E8A0E0C6E550EAA
:1016B6000D6E0D2EFED70C2EFCD70B2EFAD7000082
:1016C6000000F292F288F18CF090F086F18AA19AED
:1016D600A08A6F886F84F28EF28CB4DF0050000A05
:1016E60033E01CD08D92460E0501486F25D08D82C1
:1016F6004F0E486F21D08D8081A403D0660E486FAF
:1017060002D06F0E486F18D08D9081A403D0660E5C
:10171600486F02D06F0E486F0FD00ED005010051F2
:10172600000AE0E00051010AE2E00051020AE3E0AB
:101736000051030AE9E0F1D7400E00016E6F050E75
:101746006F6F400E706F89DF2950000A0AE1400E64
:1017560000016E6F050E6F6F400E706F7EDF020E1A
:10176600296E2950010A13E181A404D0660E0501F1
:10177600486F03D005016F0E486F020E296E400EAA
:1017860000016E6F050E6F6F400E706F66DFA5D796
:02179600FFD77B
:101798000902290001010080320904000002030047
:1017A80000000921010100012221000705810340F1
:0917B800000107050103400001D6
:1017C1000600FF0901A10119012940150026FF00AA
:1017D10075089540810219012940750895409102CB
:0117E100C047
:1017E2001201000200000008D804010000010102F9
:0217F2000001F4
:1017F40012035500530042002800480049004400E9
:021804002900B9
:1018060012036C00650061006E00680064007500DC
:0218160063006D
:0418180004030904B8
:020000040030CA
:0E000000240C3E1EFF80C1FF0FC00FE00F401A
:00000001FF
