:04000000B0EF1FF04E
:1000080000C017F001C016F002C015F0E1CF18F0DB
:10001800E2CF19F0F0A00BD0F0908D7081A404D03D
:10002800010E00019F6F02D000019F6B6FD0F2A2FA
:1000380018D0F292000E006E5A50005C02E159503E
:10004800FF0802E2596A5A6A010E5924006E000E2E
:100058005A20016E00C059F001C05AF0010E5B6EC3
:1000680055D0F0A202D0F09251D09EAA4FD0CDEC3C
:100078001EF000C010F142D001011051400A13E1F6
:100088000001666BAD0EE16E000EE26E6651E12670
:10009800D8B0E22A10C1E6FF6651010F006E00C019
:1000A80066F0010E676F32D000010C0E665D10E23B
:1000B800AD0EE16E000EE26E6651E126D8B0E22A7E
:1000C80010C1E6FF6651010F006E00C066F003D054
:1000D800666B676B1BD001011051260A0DE1AD0E4E
:1000E800E16E000EE26E00016651E126D8B0E22A08
:1000F800E66A010E5C6E676B09D008D00001675193
:10010800000ABAE06751010ACFE0F7D717C000F03C
:1001180016C001F015C002F018C0E1FF19C0E2FFD7
:020128001100C4
:10012A000B820BAE9FEF00F003680268016800685B
:08013A000A360232FF0E12002A
:080142000AAE029E000E12003D
:10014A000B840BAEB0EF00F0010E036E026A016A77
:0A015A00006A0A360232FF0E12009E
:0E016400026A016A006A086A036A000E12004D
:100172000CB0FBEF00F00CA2A1EF01F00E6A000E32
:10018200026412EF01F0F00E0214D8A4DDEF00F0C9
:10019200023A01380F0B02260138F00B016E0038CB
:1001A2000F0B01260038F00B006E08380F0B0026EB
:1001B2000838F00B086E0E84D89002BEF6EF00F0FD
:1001C20008360036013602360E2A02BEF6EF00F07D
:1001D20008360036013602360E2A02BEF6EF00F06D
:1001E20008360036013602360E2A0E50036497EFA7
:1001F20001F0035E0BBC08AE9CEF01F0D880800ECC
:1002020008640030000E002201220222D8A09CEFD6
:1002120001F0023201320032034AA1EF01F09CEFF9
:1002220001F001C002F000C001F008C000F0086A4D
:10023200000E0E86026449EF01F0F00E0214D8A4FB
:1002420031EF01F0023A01380F0B02260138F00BB0
:10025200016E00380F0B01260038F00B006E0E8481
:10026200D89002BEF6EF00F00036013602360E2AB2
:1002720002BEF6EF00F00036013602360E2A02BE4A
:10028200F6EF00F00036013602360E2AF6EF00F0E5
:1002920001C002F000C001F0006A000E0E960E8846
:1002A200026476EF01F0F00E0214D8A461EF01F0BF
:1002B200023A01380F0B02260138F00B016E0E8450
:1002C200D89002BEF6EF00F0013602360E2A02BEC8
:1002D200F6EF00F0013602360E2A02BEF6EF00F00B
:1002E200013602360E2AF6EF00F001C002F0016A72
:1002F200000E0E860264A6EF01F0F00E0214D8A4DE
:1003020085EF01F0023A0E84D89002BEF6EF00F0BB
:1003120002360E2A02BEF6EF00F002360E2A02BEA6
:10032200F6EF00F002360E2AF6EF00F0010E0C6E28
:100332000BDFA9EF01F0020E0C6E02DFA9EF01F054
:10034200040E0C6EF1DEA9EF01F0080E0C6E09DF4F
:02035200120097
:100354000D6A086A0050D8B4000C04180A6E0ABE6C
:100364000D1E0B6A04AE02D0041E042A00AE02D095
:10037400001E002A005004100A6E0ABE1FD004504A
:10038400085E003600340836045008260036060E8F
:100394000C6E00340836045000B0085E00A0082635
:1003A40000360C2EF6D700A008260BB015D00DAEE3
:1003B400000C001E002A081E082A000C04AE09D0F6
:1003C40000BE04D00050086E006AF1D7006A002A0B
:1003D400000C001E0B2AD3D7082A0450085CD8A4AA
:0E03E400E6D7086A002A00AEE2D7FF0C12002E
:1003F200086A080E0C6E003408360450085ED8B045
:0E04020002D00826D89000360C2EF5D7120036
:10041000025006180E6E086A096A0B6A03500764D8
:10042000FBEF02F006500A6E068E028E03500B6E32
:100430000750036E000E0B644BEF02F00B50075E8B
:10044000D8B4ECEF02F0070E0764BAEF02F0075ED3
:1004500000C008F001C000F002C001F0026A074EBF
:10046000ECEF02F007648FEF02F0075E00C008F0C7
:1004700001C000F0016A074EECEF02F007646DEF77
:1004800002F0075E00C008F0006A074EECEF02F0D1
:10049000076454EF02F00AC002F005C001F004C086
:1004A00000F0086A15EF04F0030E07645FEF02F036
:1004B000075E08380F0B086E074EECEF02F0D8907D
:1004C0000832074EECEF02F0D8900832074EECEFFE
:1004D00002F0D8900832ECEF02F0030E07647EEFD2
:1004E00002F0075E08380F0B086E0038F00B082684
:1004F00000380F0B006E074EECEF02F0D890003280
:100500000832074EECEF02F0D89000320832074E66
:10051000ECEF02F0D89000320832ECEF02F0030E5C
:100520000764A6EF02F0075E08380F0B086E00386C
:10053000F00B082600380F0B006E0138F00B002678
:1005400001380F0B016E074EECEF02F0D89001322C
:1005500000320832074EECEF02F0D8900132003240
:100560000832074EECEF02F0D89001320032083228
:10057000ECEF02F0030E0764D7EF02F0075E0838D5
:100580000F0B086E0038F00B082600380F0B006EBA
:100590000138F00B002601380F0B016E0238F00B0A
:1005A000012602380F0B026E074EECEF02F0D890D6
:1005B0000232013200320832074EECEF02F0D890DE
:1005C0000232013200320832074EECEF02F0D890CE
:1005D0000232013200320832096A000E0EAEE0EF3C
:1005E00003F0081E001E011E021E082A002201221E
:1005F0000222E0EF03F00750D8A401EF03F015EF5B
:1006000004F0096A02C00AF0028E068E0750035CED
:10061000076ED8B4D3EF03F0070E0764A1EF03F021
:10062000075E0450096E0550046E0650056E066A9A
:10063000074ED3EF03F0070E076476EF03F0075E73
:100640000450096E0550046E056A074ED3EF03F09F
:10065000070E076454EF03F0075E0450096E046A46
:10066000074ED3EF03F0070E07643BEF03F00AC019
:1006700002F015EF04F0030E076446EF03F0075E87
:1006800009380F0B096E074ED3EF03F0D8900932EB
:10069000074ED3EF03F0D8900932074ED3EF03F0A3
:1006A000D8900932D3EF03F0030E076465EF03F02F
:1006B000075E09380F0B096E0438F00B0926043861
:1006C0000F0B046E074ED3EF03F0D89004320932BB
:1006D000074ED3EF03F0D89004320932074ED3EF20
:1006E00003F0D89004320932D3EF03F0030E07640D
:1006F0008DEF03F0075E09380F0B096E0438F00B1D
:10070000092604380F0B046E0538F00B0426053853
:100710000F0B056E074ED3EF03F0D890053204326D
:100720000932074ED3EF03F0D89005320432093274
:10073000074ED3EF03F0D890053204320932D3EFDD
:1007400003F0030E0764BEEF03F0075E09380F0BDA
:10075000096E0438F00B092604380F0B046E0538B7
:10076000F00B042605380F0B056E0638F00B052636
:1007700006380F0B066E074ED3EF03F0D890063203
:10078000053204320932074ED3EF03F0D890063217
:10079000053204320932074ED3EF03F0D890063207
:1007A000053204320932086A000E0EAEE0EF03F0A3
:1007B000091E041E051E061E092A04220522062201
:1007C000095008260450002205500122065002223A
:1007D0000EBEF7EF03F0D8A006EF04F002320132AC
:1007E00000320832033E06EF04F010EF04F0D8B0F8
:1007F0000BEF04F0000E081E001E011E021E082A48
:100800000022012202220A7E0BEF04F0010E0C6E80
:10081000B0DC17EF04F0020E0C6EABDC17EF04F047
:10082000040E0C6E82DC17EF04F0000E0C6E12004A
:10083000086A096A000E076203649DEF04F0025023
:1008400006180A6E075003267E0ED8A02EEF04F07D
:10085000035ED8B0A1EF04F032EF04F0035ED8A03D
:10086000A6EF04F0028E068E02C00EF001C00BF05F
:1008700000C00DF000500402F4CF0CF0015005024E
:10088000F4CF00F0F3CF08F00402F3500C26F4503C
:100890000822000E00220D500502F3500C26F450E1
:1008A0000822000E002202500402F3500826F450E1
:1008B000002202500502016A000E0122F3500026B8
:1008C000F45001220D500602F3500826F450002285
:1008D000026A000E012202220B500602F35000268B
:1008E000F4500122000E02220E500602F35001269F
:1008F000F450022202BE85EF04F0083600360136BD
:1009000002360306D8B4A6EF04F098EF04F0D880BE
:10091000800E08640030000E002201220222D8A0BE
:1009200098EF04F0023201320032034AA1EF04F0E2
:100930000AAE029E000EA9EF04F0010E13DCA9EF2F
:1009400004F0020E95EC00F0A9EF04F0040EA5EC03
:0409500000F01200A1
:100954000134083609360450085E0550D8A0053C19
:10096400095E003601360F0E0C6E01340836093666
:10097400045000A006D0085E0550D8A0053C095ECE
:1009840005D008260550D8B0053C092600360136A6
:100994000C2EEBD700B006D0045008260550D8B072
:0809A400053C092600001200C9
:0E09AC00ACB202D00000FCD70FC1ADFF1200AC
:0809BA000B6A0B86FF0E120010
:1009C2000B800BAEEDEF04F0026A0AAEFF0E026E70
:0C09D200016E006E0A360232FF0E1200A9
:1009DE000B6A0A6A096A086A0E6A033408360450FA
:1009EE00085E0550D8A0053C095E0650D8A0063C0E
:1009FE000A5E0750D8A0073C0B5EE86AD8A0010E2D
:100A0E000E5E0336070E0C6E0334083609360A36B0
:100A1E000B360E36045003A012D0085E0550D8A037
:100A2E00053C095E0650D8A0063C0A5E0750D8A0C9
:100A3E00073C0B5EE86AD8A0010E0E5E11D00826A8
:100A4E000550D8B0053C09260650D8B0063C0A26FB
:100A5E000750D8B0073C0B26E86AD8B0010E0E2618
:100A6E0003360C2ED1D70234083609360A360B3629
:100A7E000E36045003A012D0085E0550D8A0053CD7
:100A8E00095E0650D8A0063C0A5E0750D8A0073C67
:100A9E000B5EE86AD8A0010E0E5E11D00826055036
:100AAE00D8B0053C09260650D8B0063C0A26075099
:100ABE00D8B0073C0B26E86AD8B0010E0E260236D7
:100ACE00070E0C6E0234083609360A360B360E3611
:100ADE00045002A012D0085E0550D8A0053C095E55
:100AEE000650D8A0063C0A5E0750D8A0073C0B5E05
:100AFE00E86AD8A0010E0E5E11D008260550D8B0B7
:100B0E00053C09260650D8B0063C0A260750D8B038
:100B1E00073C0B26E86AD8B0010E0E2602360C2EC4
:100B2E00D1D70134083609360A360B360E36045044
:100B3E0002A012D0085E0550D8A0053C095E0650F2
:100B4E00D8A0063C0A5E0750D8A0073C0B5EE86AA8
:100B5E00D8A0010E0E5E11D008260550D8B0053C67
:100B6E0009260650D8B0063C0A260750D8B0073CD6
:100B7E000B26E86AD8B0010E0E260136070E0C6E53
:100B8E000134083609360A360B360E36045001A0EB
:100B9E0012D0085E0550D8A0053C095E0650D8A0BC
:100BAE00063C0A5E0750D8A0073C0B5EE86AD8A048
:100BBE00010E0E5E11D008260550D8B0053C092650
:100BCE000650D8B0063C0A260750D8B0073C0B2674
:100BDE00E86AD8B0010E0E2601360C2ED1D700349D
:100BEE00083609360A360B360E36045001A012D0DE
:100BFE00085E0550D8A0053C095E0650D8A0063CFC
:100C0E000A5E0750D8A0073C0B5EE86AD8A0010E1A
:100C1E000E5E11D008260550D8B0053C09260650A8
:100C2E00D8B0063C0A260750D8B0073C0B26E86A17
:100C3E00D8B0010E0E260036070E0C6E00340836A4
:100C4E0009360A360B360E36045000A012D0085E56
:100C5E000550D8A0053C095E0650D8A0063C0A5E99
:100C6E000750D8A0073C0B5EE86AD8A0010E0E5EB6
:100C7E0011D008260550D8B0053C09260650D8B02C
:100C8E00063C0A260750D8B0073C0B26E86AD8B0B7
:100C9E00010E0E2600360C2ED1D700B00ED0045009
:100CAE0008260550D8B0053C09260650D8B0063C9B
:0C0CBE000A260750D8B0073C0B26120095
:100CCA000A6A0350D8A40A800750D8A40A820A5094
:100CDA00D8B4C8EF06F0030AD8B481EF06F00AB018
:100CEA007CEF06F006AEC6EF06F0C4EF06F002AEE1
:100CFA00C4EF06F0C6EF06F00250800B0A6E029EA1
:100D0A000650800B069E0A18D8B492EF06F00A50D5
:100D1A00D8B4C4EF06F0C6EF06F00750035CD8B4A7
:100D2A009CEF06F0D8A0B8EF06F0BEEF06F006502A
:100D3A00025CD8B4A6EF06F0D8A0B8EF06F0BEEF72
:100D4A0006F00550015CD8B4B0EF06F0D8A0B8EFB1
:100D5A0006F0BEEF06F00450005CD8B4C8EF06F007
:100D6A00D8B0BEEF06F00A52D8B4C6EF06F0C4EF08
:100D7A0006F00A52D8B4C4EF06F0C6EF06F0D880DF
:0E0D8A001200D8901200D880D88412001200F7
:080D9800067E08EC02F01200D7
:100DA0006E0E01010A5DD8A0C7D0640E046E0AC1A0
:100DB00000F0F9EC01F0120E0024056E066A000E38
:100DC000062205C000F006C001F0000E06BEFF0EB0
:100DD000026E036E0036009001360236033600368E
:100DE0000090013602360336BC0E0024F66E410E2A
:100DF0000120F76E000E0220F86E0900F5CF00F01A
:100E00000900F5CF01F00900F5CF02F00900F5CF98
:100E100003F0000E046E000E056E000E066E7E0ED0
:100E2000076E06DD00C00BF101C00CF102C00DF130
:100E300003C00EF1640E046E0AC100F0F9EC01F07B
:100E400008C000F00A0E046EF9EC01F0090E00244F
:100E5000056E066A000E062205C000F006C001F00D
:100E6000000E06BEFF0E026E036E003600900136C5
:100E70000236033600360090013602360336BC0EC9
:100E80000024F66E410E0120F76E000E0220F86E6F
:100E90000900F5CF00F00900F5CF01F00900F5CF0A
:100EA00002F00900F5CF03F00BC104F00CC105F00E
:100EB0000DC106F00EC107F0BBDC00C00BF101C094
:100EC0000CF102C00DF103C00EF10A0E046E0AC14E
:100ED00000F0F9EC01F008C000F000C001F0000ED5
:100EE000026E036E046E013601900236033604363C
:100EF00001360190023603360436BC0E0124F66E2C
:100F0000410E0220F76E000E0320F86E0900F5CFA7
:100F100000F00900F5CF01F00900F5CF02F009005B
:100F2000F5CF03F00BC104F00CC105F00DC106F0C4
:100F30000EC107F07DDCB0D00A510A08D8B07DD0D0
:100F40000A0E046E0AC100F0F9EC01F0090E00244B
:100F5000056E066A000E062205C000F006C001F00C
:100F6000000E06BEFF0E026E036E003600900136C4
:100F70000236033600360090013602360336BC0EC8
:100F80000024F66E410E0120F76E000E0220F86E6E
:100F90000900F5CF00F00900F5CF01F00900F5CF09
:100FA00002F00900F5CF03F0000E046E000E056E8E
:100FB000000E066E7E0E076E3BDC00C00BF101C01A
:100FC0000CF102C00DF103C00EF10A0E046E0AC14D
:100FD00000F0F9EC01F008C000F000C001F0000ED4
:100FE000026E036E046E013601900236033604363B
:100FF00001360190023603360436BC0E0124F66E2B
:10100000410E0220F76E000E0320F86E0900F5CFA6
:1010100000F00900F5CF01F00900F5CF02F009005A
:10102000F5CF03F00BC104F00CC105F00DC106F0C3
:101030000EC107F018EC04F02FD00AC100F0000E2A
:10104000016E026E036E00360090013602360336E2
:1010500000360090013602360336BC0E0024F66ED0
:10106000410E0120F76E000E0220F86E0900F5CF48
:1010700000F00900F5CF01F00900F5CF02F00900FA
:10108000F5CF03F0000E046E000E056E000E066E26
:0A1090007E0E076E18EC04F012004B
:0A109A00000E9EBA010E006E120057
:1010A400AECF01F0ABA202D0AB98AB8801C000F088
:0210B400120028
:0A10B600000EACB2010E006E120035
:1010C0000450000A08E10550000A05E1FF0E006E19
:1010D0007F0E016E57D00D6A096A086A0150001030
:1010E000D8B4000C015005180A6E0ABE0D1E0B6A1A
:1010F00005AE05D0041E051E042AD8B4052A01AE8B
:1011000005D0001E011E002AD8B4012A0150051086
:101110000A6E0ABE10D01EDC0BB020D00DAE000C43
:10112000001E011E002AD8B4012A081E091E082A22
:10113000D8B4092A000C05AE0DD001BE07D001506D
:10114000096E0050086E016A006AE8D7016A006AF9
:10115000002A000C011E001E0B2ADDD7082AD8B475
:10116000092A0450085CD8A4D9D70550095CD8A432
:10117000D5D7096A086A002AD8B4012A01AECED7A9
:061180000000FF0C12004C
:10118600800E01010A19006E800E000A005CD8B0BC
:101196006DD10A510008016E01C00AF1800E0118D6
:1011A600006E800E6E0A005CD8A0C0D0640E046E7D
:1011B6000AC100F0AAEC01F0120E0024056E000E22
:1011C60000BEFF0E066E000E062205C000F006C029
:1011D60001F0000E06BEFF0E026E036E0036009092
:1011E60001360236033600360090013602360336E3
:1011F600BC0E0024F66E410E0120F76E000E022092
:10120600F86E0900F5CF0BF10900F5CF0CF10900D6
:10121600F5CF0DF10900F5CF0EF1640E046E0AC18B
:1012260000F0AAEC01F008C000F00A0E046EAAEC69
:1012360001F0090E0024056E000E00BEFF0E066EBC
:10124600000E062205C000F006C001F0000E06BE24
:10125600FF0E026E036E003600900136023603362C
:1012660000360090013602360336BC0E0024F66EB8
:10127600410E0120F76E000E0220F86E0900F5CF30
:1012860000F00900F5CF01F00900F5CF02F00900E2
:10129600F5CF03F00BC104F00CC105F00DC106F04B
:1012A6000EC107F018EC04F000C00BF101C00CF100
:1012B60002C00DF103C00EF10A0E046E0AC100F061
:1012C600AAEC01F008C000F000C001F0000E00BE5C
:1012D600FF0E026E036E046E01360190023603366F
:1012E600043601360190023603360436BC0E01245C
:1012F600F66E410E0220F76E000E0320F86E09000E
:10130600F5CF00F00900F5CF01F00900F5CF02F0A6
:101316000900F5CF03F00BC104F00CC105F00DC1B7
:1013260006F00EC107F018EC04F007D2800E0A0A88
:10133600006E800E0A19005C71E20A0E046E0AC184
:1013460000F0AAEC01F0090E0024056E000E00BEA6
:10135600FF0E066E000E062205C000F006C001F064
:10136600000E06BEFF0E026E036E003600900136BA
:101376000236033600360090013602360336BC0EBE
:101386000024F66E410E0120F76E000E0220F86E64
:101396000900F5CF0BF10900F5CF0CF10900F5CFE7
:1013A6000DF10900F5CF0EF10A0E046E0AC100F028
:1013B600AAEC01F008C000F000C001F0000E00BE6B
:1013C600FF0E026E036E046E01360190023603367E
:1013D600043601360190023603360436BC0E01246B
:1013E600F66E410E0220F76E000E0320F86E09001D
:1013F600F5CF00F00900F5CF01F00900F5CF02F0B6
:101406000900F5CF03F00BC104F00CC105F00DC1C6
:1014160006F00EC107F018EC04F08FD10AC100F0F7
:10142600000E0ABFFF0E016E026E036E00360090BC
:101436000136023603360036009001360236033690
:10144600BC0E0024F66E410E0120F76E000E02203F
:10145600F86E0900F5CF00F00900F5CF01F009009C
:10146600F5CF02F00900F5CF03F067D1800E0A1917
:10147600006E800E6E0A005CD8A0C0D0640E046EAA
:101486000AC100F0AAEC01F0120E0024056E000E4F
:1014960000BEFF0E066E000E062205C000F006C056
:1014A60001F0000E06BEFF0E026E036E00360090BF
:1014B6000136023603360036009001360236033610
:1014C600880E0024F66E410E0120F76E000E0220F3
:1014D600F86E0900F5CF0BF10900F5CF0CF1090004
:1014E600F5CF0DF10900F5CF0EF1640E046E0AC1B9
:1014F60000F0AAEC01F008C000F00A0E046EAAEC97
:1015060001F0090E0024056E000E00BEFF0E066EE9
:10151600000E062205C000F006C001F0000E06BE51
:10152600FF0E026E036E0036009001360236033659
:1015360000360090013602360336880E0024F66E19
:10154600410E0120F76E000E0220F86E0900F5CF5D
:1015560000F00900F5CF01F00900F5CF02F009000F
:10156600F5CF03F00BC104F00CC105F00DC106F078
:101576000EC107F018EC04F000C00BF101C00CF12D
:1015860002C00DF103C00EF10A0E046E0AC100F08E
:10159600AAEC01F008C000F000C001F0000E00BE89
:1015A600FF0E026E036E046E01360190023603369C
:1015B600043601360190023603360436880E0124BD
:1015C600F66E410E0220F76E000E0320F86E09003B
:1015D600F5CF00F00900F5CF01F00900F5CF02F0D4
:1015E6000900F5CF03F00BC104F00CC105F00DC1E5
:1015F60006F00EC107F018EC04F09FD0800E0A0A20
:10160600006E800E0A19005C71E20A0E046E0AC1B1
:1016160000F0AAEC01F0090E0024056E000E00BED3
:10162600FF0E066E000E062205C000F006C001F091
:10163600000E06BEFF0E026E036E003600900136E7
:101646000236033600360090013602360336880E1F
:101656000024F66E410E0120F76E000E0220F86E91
:101666000900F5CF0BF10900F5CF0CF10900F5CF14
:101676000DF10900F5CF0EF10A0E046E0AC100F055
:10168600AAEC01F008C000F000C001F0000E00BE98
:10169600FF0E026E036E046E0136019002360336AB
:1016A600043601360190023603360436880E0124CC
:1016B600F66E410E0220F76E000E0320F86E09004A
:1016C600F5CF00F00900F5CF01F00900F5CF02F0E3
:1016D6000900F5CF03F00BC104F00CC105F00DC1F4
:1016E60006F00EC107F018EC04F027D00AC100F08E
:1016F600000E0ABFFF0E016E026E036E00360090EA
:1017060001360236033600360090013602360336BD
:10171600880E0024F66E410E0120F76E000E0220A0
:10172600F86E0900F5CF00F00900F5CF01F00900C9
:0C173600F5CF02F00900F5CF03F012001F
:1017420003500718D8A4B5EF0BF002500618D8A41E
:10175200B5EF0BF001500518D8A4B5EF0BF000500F
:0E1762000418D8B4D8841200D89412001200D3
:101770000B6A0A6A096A00500402F4CF09F0F3CF39
:1017800008F001500502F4CF0BF0F3CF0AF000503F
:101790000502F3500926F4500A22E86A0B22015090
:1017A0000402F3500926F4500A22E86A0B2208C00A
:1017B00000F009C001F00AC002F00BC003F01200F3
:1017C00001010A51390806E3300E0A5D03E3010EF8
:0817D000006E01D0006A120056
:1017D8000050086E0150006E0250016E0350026EF8
:1017E800036A0B6A0C6A9E0E036E0A6A020E0C6E7E
:0617F800B9EC00F0120044
:1017FE00F250026EF29E0500FF6A0150FE6E00501E
:08180E00FD6E02BEF28E120015
:101816000B6A0C6A086A0350D8B48FEF0CF002C04A
:101826000AF0028E9E0E035E03AE7FEF0CF0036C91
:10183600080E035CD8A04CEF0CF0036E083600C00F
:1018460008F001C000F002C001F0026A080E035C55
:10185600D8A04CEF0CF0036E083600C008F001C0AB
:1018660000F0016A080E035CD8A04CEF0CF0036E82
:10187600083600C008F0006A080E035CD8A04CEFDA
:101886000CF0036E0836086A0350D8A4D89058EFB7
:101896000CF00350D8B458EF0CF0D8900232013255
:1018A60000320832032E50EF0CF00BBC08A069EF93
:1018B6000CF0D8A069EF0CF0082AD8B4002AD8B4E6
:1018C600012AD8B4022A02BE93EF0CF00AAE8FEFBB
:1018D6000CF0021E011E001E081E082AD8B4002A9B
:1018E600D8B4012AD8B4022A8FEF0CF0026A016A32
:1018F600006A086A8FEF0CF00B800BAE9AEF0CF0C3
:10190600026A0AAE9AEF0CF0026E016E006E086E65
:101916000A3602329AEF0CF00C6A000E9BEF0CF0BE
:10192600010E0C6E000EE1EC04F09BEF0CF0FF0EC6
:101936000250036E0150026E0050016E0850006E98
:0219460012008D
:101948000450000A12E10550000A0FE10650000A8F
:101958000CE10750000A09E1FF0E006EFF0E016E50
:101968007F0E026EFF0E036EA8D0086A096A075040
:10197800D8B44FEF0DF00350D8B454EF0DF0025027
:1019880006180A6E028E068E0E6A02C008F001C0A2
:101998000CF000C00DF004500D5E0550D8A0053CB9
:1019A8000C5E0650D8A0063C085E086A0C6A0D6AF0
:1019B800D8A0E6EF0CF0D89002320132003208329B
:1019C800010E0E6E0750035ED8A0F3EF0CF07E0EEA
:1019D8000E240326D8B059EF0DF0F9EF0CF07E0E67
:1019E8000E240326D8A05EEF0DF0180E0B6E0D36F0
:1019F8000C3608360036013602360E360450005EC4
:101A08000550D8A0053C015E0650D8A0063C025EF1
:101A180006340E120EA014EF0DF00D801FEF0DF01E
:101A2800045000260550D8B0053C01260650D8B011
:101A3800062802260D900B2EFBEF0CF045EF0DF05B
:101A4800D8900036013602360E360450005E055036
:101A5800D8A0053C015E0650D8A0063C025E0634BC
:101A68000E10010B0D26D8B00C2AD8B4082AD8A419
:101A780045EF0DF008320C320D32032AD8B459EF75
:101A88000DF00AAE089E0850026E0C50016E0D5003
:101A9800006E61EF0DF0010EDDEC04F061EF0DF06A
:101AA800020EB2EC00F061EF0DF0040E95EC00F0C0
:0C1AB80061EF0DF0080EA5EC00F012002C
:101AC4000B6A0C6A0A6A086A0350D8B4EAEF0DF08C
:101AD400028E9E0E035E03BE75EF0DF0D8B475EF53
:101AE4000DF0DAEF0DF0036C080E035CD8A0A7EF3D
:101AF4000DF0036E083600C008F001C000F002C00B
:101B040001F0026A080E035CD8A0A7EF0DF0036E83
:101B1400083600C008F001C000F0016A080E035C3A
:101B2400D8A0A7EF0DF0036E083600C008F0006AD5
:101B3400080E035CD8A0A7EF0DF0036E0836086A00
:101B44000350D8A4D890B3EF0DF00350D8B4B3EF3A
:101B54000DF0D8900232013200320832032EABEF7E
:101B64000DF00BBC08A0C4EF0DF0D8A0C4EF0DF02D
:101B7400082AD8B4002AD8B4012AD8B4022A02BE4A
:101B8400EEEF0DF00AAEEAEF0DF0021E011E001E8C
:101B9400081E082AD8B4002AD8B4012AD8B4022AC4
:101BA400EAEF0DF0026A016A006A086AEAEF0DF0D2
:101BB4000B800BAEF4EF0DF0026A0AAEF4EF0DF0F9
:101BC400026E016E006E086E0A360232F4EF0DF0FA
:101BD400000E0C6AF5EF0DF0010E0C6EE1EC04F052
:101BE400F5EF0DF0FF0E0250036E0150026E00502F
:081BF400016E0850006E1200A2
:101BFC00D1C0E1FFD2C0E2FFE2C0E6FFCFC000F0EF
:081C0C00D0C001F0F6DD12006A
:101C14000101026B036B0001F66BF76B0001E4C07A
:101C240000F0E5C001F0E6C002F0010EE427000E6A
:101C3400E523E62300C0F6FF01C0F7FF02C0F8FF6A
:101C44000900F5CF00F000C0F3F00052D8B4C8EF9B
:101C54001EF0F351250A0CE0E2C0E1FFE3C0E2FF0D
:101C6400F3C0E6FFE24BE32B0101024B032BD6D773
:101C74000001F46BF56BF66BF76B24D00001F6876B
:101C8400010EE427000EE523E62359D0F681010E68
:101C9400E427000EE523E62352D0F683010EE42761
:101CA400000EE523E6234BD0F787010EE427000E50
:101CB400E523E62344D0F685010EE427000EE52350
:101CC400E6233DD0E4C0F6FFE5C0F7FFE6C0F8FF29
:101CD4000900F5CF01F001502D0AD0E0E4C0F6FF71
:101CE400E5C0F7FFE6C0F8FF0900F5CF01F00150A9
:101CF400200ACCE0E4C0F6FFE5C0F7FFE6C0F8FF39
:101D04000900F5CF01F001502B0AC7E0E4C0F6FF4B
:101D1400E5C0F7FFE6C0F8FF0900F5CF01F0015078
:101D2400230AC2E0E4C0F6FFE5C0F7FFE6C0F8FF0F
:101D34000900F5CF01F00150300ABDE001D09DD774
:101D4400F6A301D0F691F6A701D0F695E4C0F6FF0C
:101D5400E5C0F7FFE6C0F8FF0900F5CF00F0000E7C
:101D6400016E00C00AF12ADD005236E00001F46B76
:101D7400F56B0001F4C000F0F5C001F00A0E046E2A
:101D8400000E056EF3DCE4C0F6FFE5C0F7FFE6C025
:101D9400F8FF0900F5CF02F002500024F46F000EA2
:101DA4000120F56F300EF45F000EF55B010EE427A1
:101DB400000EE523E623E4C0F6FFE5C0F7FFE6C026
:101DC400F8FF0900F5CF00F0000E016E00C00AF123
:101DD400F5DC0052CEE134D0E4C0F6FFE5C0F7FFF5
:101DE400E6C0F8FF0900F5CF01F001502A0A28E106
:101DF400E7C0E9FFE8C0EAFFEECF00F0EECF01F064
:101E040000C0E9FF01C0EAFFEECFF4F0EECFF5F039
:101E1400E7C0E9FFE8C0EAFF020EEE24006E000E00
:101E2400EE20016EE7C0E1FFE8C0E2FF00C0E6FF7C
:101E340001C0E6FF010E0001E427000EE523E623BE
:101E4400E4C0F6FFE5C0F7FFE6C0F8FF0900F5CFF0
:101E540001F001502E0A70E10001010EE427000E8A
:101E6400E523E623E4C0F6FFE5C0F7FFE6C0F8FF8C
:101E74000900F5CF01F001502A0A28E1E7C0E9FF83
:101E8400E8C0EAFFEECF00F0EECF01F000C0E9FFBA
:101E940001C0EAFFEECFF1F0EECFF2F0E7C0E9FFC8
:101EA400E8C0EAFF020EEE24006E000EEE20016E82
:101EB400E7C0E1FFE8C0E2FF00C0E6FF01C0E6FFC3
:101EC400010EE427000EE523E62335D0F16BF26B17
:101ED400E4C0F6FFE5C0F7FFE6C0F8FF0900F5CF60
:101EE40000F0000E016E00C00AF168DC005223E02D
:101EF400F1C000F0F2C001F00A0E046E000E056E8F
:101F040035DCE4C0F6FFE5C0F7FFE6C0F8FF0900E2
:101F1400F5CF02F0025000240001F16F000E012001
:101F2400F26F300EF15F000EF25B010EE427000E3B
:101F3400E523E623CDD704D00001F16BF26BF789DA
:101F44000001E4C000F0E5C001F0E6C002F0010EBB
:101F5400E427000EE523E62300C0F6FF01C0F7FFE7
:101F640002C0F8FF0900F5CFF3F015D102C100F06B
:101F740003C101F0CCEF1EF0F689E2D7F7854AD110
:101F8400F68BF78147D1F78345D1F68D43D142D102
:101F9400F68BF68F3FD1E7C0E9FFE8C0EAFFEECF4A
:101FA40000F0EECF01F000C0E9FF01C0EAFFEECF80
:101FB400FEF0EECFFFF0E7C0E9FFE8C0EAFF020E53
:101FC400EE24006E000EEE20016EE7C0E1FFE8C0D3
:101FD400E2FF00C0E6FF01C0E6FF000EFF1902E1C8
:101FE400000EFE1904E1680EFE6F000EFF6F010182
:101FF400006B016B00510001FE25E96E01010151E6
:102004000001FF21EA6EEE520CE0010E01010025F1
:10201400006E000E0121016E00C000F101C001F14B
:10202400E9D70001F151F2110EE001010151000163
:10203400F25D04E1010100510001F15D04E2F1C02F
:1020440000F1F2C001F1F5510101015D04E100016B
:10205400F4510101005D08E200510001F45F010147
:1020640001510001F55B03D00001F46BF56BF6B789
:1020740018D00001F4C000F0F5C001F0010EF45FC7
:10208400000EF55B005001100CE0E2C0E1FFE3C07C
:10209400E2FF200EE66EE24BE32B0101024B032B21
:1020A400E8D7010100C102F001C103F0010E005D97
:1020B400006E000E0159016E00C000F101C001F173
:1020C400025003101BE0FEC0E9FFFFC0EAFFE2C0BC
:1020D400E1FFE3C0E2FFEECFE6FF0001E24BE32BBA
:1020E400010EFE25006E000EFF21016E00C0FEF001
:1020F40001C0FFF00101024B032BD3D70001F6A767
:1021040018D00001F4C000F0F5C001F0010EF45F36
:10211400000EF55B005001100CE0E2C0E1FFE3C0EB
:10212400E2FF200EE66EE24BE32B0101024B032B90
:10213400E8D774D5E7C0E9FFE8C0EAFFEECF00F0C6
:10214400EECF01F000C0E9FF01C0EAFFEECFF3F0EB
:10215400E7C0E9FFE8C0EAFF020EEE24006E000EBD
:10216400EE20016EE7C0E1FFE8C0E2FF00C0E6FF39
:1021740001C0E6FFF30E0001FE6F000EFF6F010EBB
:102184000101006F000E016F4CD7C00E0001F61361
:10219400000EF7133FD0F351000AD8B4E7D6F35139
:1021A4006C0AD8B4E9D6F3514C0AD8B4E5D6F35145
:1021B400660AD8B4E3D6F351450AD8B4E1D6F3514C
:1021C400650AD8B4DED6F351670AD8B4DCD6F35125
:1021D4006F0AD8B4DAD6F351640AD8B4D8D6F35116
:1021E400690AD8B4D4D6F351700AD8B4D1D6F3510D
:1021F400580AD8B4CDD6F351780AD8B4CAD6F35114
:10220400730AD8B4C8D6F351630A94E0F351750A3B
:10221400BCE0B0D7000EF615006EF751070B016E47
:1022240000500110D8B435EF1AF0F7A904D0060E07
:10223400F16F000EF26FE7C0E9FFE8C0EAFFEECFEE
:1022440000F0EECF01F000C0E9FF01C0EAFFEECFDD
:10225400F8F0EECFF9F0EECFFAF0EECFFBF0E7C0F6
:10226400E9FFE8C0EAFF040EEE24006E000EEE2043
:10227400016EE7C0E1FFE8C0E2FF00C0E6FF01C075
:10228400E6FF046A056A066A076AF8C000F0F9C046
:1022940001F0FAC002F0FBC003F065EC06F0010E99
:1022A400D8B0000E006E005205E0FA7F030EF6135C
:1022B400000EF713FC6BFD6BF8C000F0F9C001F0E1
:1022C400FAC002F0FBC003F0046A056A066A076AF2
:1022D400A1EC0BF0000ED8A4010E006E0052D8B48D
:1022E4008DD0FBC000F0016A026A036AFF0E00167B
:1022F400000E01167E0E005E000E015A00C0FCF0B6
:1023040001C0FDF0010E005E000E015A00C0FCF099
:1023140001C0FDF0030E046E000E056EB8EC0BF068
:1023240000C0FCF001C0FDF00A0E046E000E056E44
:1023340060EC08F000C0FCF001C0FDF0800E011854
:10234400026E800E025C02E1000E005C05E2010EEA
:102354000001FC5F000EFD5B0001FC51000801015F
:102364000A6FC3EC08F0F8C004F0F9C005F0FAC035
:1023740006F0FBC007F018EC04F000C0FEF001C04A
:10238400FFF002C000F103C001F1000E046E000E64
:10239400056E000E066E7F0E076EFEC000F0FFC0D5
:1023A40001F000C102F001C103F065EC06F0010E7A
:1023B400D8B0000E006E005206E0010E0001FC5F72
:1023C400000EFD5B1BD0000E046E000E056E200E89
:1023D400066E820E076EFEC000F0FFC001F000C161
:1023E40002F001C103F065EC06F0000ED8B0010E56
:1023F400006E005203E00001FC4BFD2B0001800E37
:10240400006E800EFD19005C02E1FC51000803E33C
:10241400010EF36F02D0FCC0F3F0F7B119D0F7A3AB
:1024240015D0800EFD19006E7F0E005C02E1FC0EDB
:10243400FC5D0BE3800EFD19006E800EF219005C4A
:1024440002E1F151FC5D01E201D002D03FEF16F050
:10245400F151F21106E0F7A304D0010EF15F000E72
:10246400F25BF251000802E1F151080803E2080EA0
:10247400F36F02D0F1C0F3F0F8C000F0F9C001F03E
:10248400FAC002F0FBC003F0046A056A066A076A30
:10249400A1EC0BF0000ED8A4010E006E0052D8B4CB
:1024A4004CD1FCC00AF1C3EC08F000C004F001C038
:1024B40005F002C006F003C007F0F8C000F0F9C050
:1024C40001F0FAC002F0FBC003F0A4EC0CF000C071
:1024D400F8F001C0F9F002C0FAF003C0FBF000010B
:1024E400F351000801010A6FC3EC08F000C004F0C6
:1024F40001C005F002C006F003C007F0F8C000F008
:10250400F9C001F0FAC002F0FBC003F0A4EC0CF037
:1025140000C004F101C005F102C006F103C007F1D7
:1025240004C1F8F005C1F9F006C1FAF007C1FBF0E7
:1025340004C100F005C101F006C102F007C103F0B7
:1025440062EC0DF0ECEC0BF000C004F001C005F0FF
:1025540002C006F003C007F004C100F005C101F099
:1025640006C102F007C103F0CCEC06F0000E046EC5
:10257400000E056E000E066E7E0E076E65EC06F00C
:10258400000ED8B0010E006E00521AE0F8C000F040
:10259400F9C001F0FAC002F0FBC003F0000E046EB3
:1025A400000E056E000E066E7E0E076E08EC02F03D
:1025B40000C0F8F001C0F9F002C0FAF003C0FBF06B
:1025C400F8C000F0F9C001F0FAC002F0FBC003F05B
:1025D40062EC0DF00001F351010F096E0A6A000E5E
:1025E4000A2209C004F00AC005F0000E0ABEFF0E5C
:1025F400066E076E04360490053606360736043632
:102604000490053606360736200E0424F66E420E74
:102614000520F76E000E0620F86E0900F5CF05F0D0
:102624000900F5CF06F00900F5CF07F00900F5CF52
:1026340008F00850035C08E10750025C05E106500D
:10264400015C02E10550005C1EE30001F8C000F0EB
:10265400F9C001F0FAC002F0FBC003F0CD0E046E25
:10266400CC0E056E4C0E066E7B0E076E18EC04F055
:1026740000C0F8F001C0F9F002C0FAF003C0FBF0AA
:10268400FC4BFD2B5AD0F8C000F0F9C001F0FAC0A1
:1026940002F0FBC003F062EC0DF0F3C004F0000E96
:1026A400056E066E076E0436049005360636073648
:1026B40004360490053606360736200E0424F66EDA
:1026C400420E0520F76E000E0620F86E0900F5CFC5
:1026D40005F00900F5CF06F00900F5CF07F0090071
:1026E400F5CF08F00850035C08E10750025C05E1EF
:1026F4000650015C02E10550005C1FE20001F8C0D5
:1027040000F0F9C001F0FAC002F0FBC003F0000EC3
:10271400046E000E056E200E066E820E076E18EC17
:1027240004F000C0F8F001C0F9F002C0FAF003C0F0
:10273400FBF0010EFC5F000EFD5B0001F7A397D0D8
:10274400F7B795D0800E000A006E800EF219005C77
:1027540002E1F1510A0804E20A0EF16F000EF26F71
:10276400F8C000F0F9C001F0FAC002F0FBC003F0B9
:1027740062EC0DF000C0FEF001C0FFF002C000F1F9
:1027840003C001F1FE51FF1101010011011143E0E9
:102794000A0E046E000E056E066E076EFEC000F093
:1027A400FFC001F000C102F001C103F0EFEC04F03E
:1027B40008C000F009C001F00AC002F00BC003F029
:1027C400000E046E031808E10450021805E10450D9
:1027D400011802E10050000A1EE1010E0001F15F40
:1027E400000EF25B0A0E046E000E056E066E076E96
:1027F400FEC000F0FFC001F000C102F001C103F00F
:10280400EFEC04F000C0FEF001C0FFF002C000F1E4
:1028140003C001F1B7D70001800EF219006E800EDB
:10282400005C02E1F351F15D22E2F151F35D01013B
:102834000A6FC3EC08F000C004F001C005F002C048
:1028440006F003C007F0F8C000F0F9C001F0FAC0C8
:1028540002F0FBC003F0A4EC0CF000C0F8F001C0DF
:10286400F9F002C0FAF003C0FBF0F1C0F3F0050E7A
:102874000001F125006E000EF221016E0050F45F9C
:102884000150F55BF151F21103E1F7B701D004D027
:10289400010EF45F000EF55B030EF615006EF7C033
:1028A40001F0000E01160050011004E0010EF45F67
:1028B400000EF55BF6A53FD0F6A313D0F6A103D026
:1028C4002D0EE96F02D02B0EE96FE2C0E1FFE3C0E9
:1028D400E2FFE9C0E6FFE24BE32B0101024B032BCD
:1028E4000ED00001F6A10BD0E2C0E1FFE3C0E2FF8D
:1028F400200EE66EE24BE32B0101024B032B800E0C
:10290400006E800E0001F519005C02E1F45100082C
:1029140011E2E2C0E1FFE3C0E2FF300EE66EE24BFB
:10292400E32B0101024B032B010E0001F45F000EA7
:10293400F55BE5D73FD0F6B71AD0800E006E800E57
:10294400F519005C02E1F451000811E2E2C0E1FF74
:10295400E3C0E2FF200EE66EE24BE32B0101024BE3
:10296400032B010E0001F45F000EF55BE6D7F6A31E
:1029740013D0F6A103D02D0EEA6F02D02B0EEA6F0E
:10298400E2C0E1FFE3C0E2FFEAC0E6FFE24BE32B73
:102994000101024B032B0ED00001F6A10BD0E2C0C3
:1029A400E1FFE3C0E2FF200EE66EE24BE32B010100
:1029B400024B032BF8C000F0F9C001F0FAC002F09A
:1029C400FBC003F062EC0DF000C0FEF001C0FFF0AC
:1029D40002C000F103C001F1F3C000F0000E016E6B
:1029E400026E036E0036009001360236033600365E
:1029F4000090013602360336200E0024F66E420E95
:102A04000120F76E000E0220F86E0900F5CF04F0E5
:102A14000900F5CF05F00900F5CF06F00900F5CF60
:102A240007F0FEC000F0FFC001F000C102F001C1D8
:102A340003F0EFEC04F0300E0026E2C0E1FFE3C047
:102A4400E2FF00C0E6FF0001E24BE32B0101024B71
:102A5400032B0001F151F21103E1F7B701D076D055
:102A6400E2C0E1FFE3C0E2FF2E0EE66EE24BE32B91
:102A74000101024B032B0001F351F15F000EF25BE5
:102A84000001F3534EE0F307F3C000F0000E016EB3
:102A9400026E036E003600900136023603360036AD
:102AA4000090013602360336200E0024F66E420EE4
:102AB4000120F76E000E0220F86E0900F5CF04F035
:102AC4000900F5CF05F00900F5CF06F00900F5CFB0
:102AD40007F0FEC000F0FFC001F000C102F001C128
:102AE40003F0EFEC04F00A0E046E000E056E066EA1
:102AF400076EEFEC04F008C000F009C001F00AC052
:102B040002F00BC003F0300E0026E2C0E1FFE3C088
:102B1400E2FF00C0E6FFE24BE32B0101024B032B73
:102B2400AFD70001F151F21111E0E2C0E1FFE3C0BF
:102B3400E2FF300EE66EE24BE32B0101024B032B66
:102B4400010E0001F15F000EF25BEBD7F6AB0CD087
:102B5400E2C0E1FFE3C0E2FF450EE66EE24BE32B89
:102B64000101024B032B0CD0E2C0E1FFE3C0E2FF02
:102B7400650EE66E0001E24BE32B0101024B032BD1
:102B8400800E0001FD19006E800E005C02E1000E53
:102B9400FC5D12E2FC510008FC6FFD51000EFD5774
:102BA400E2C0E1FFE3C0E2FF2D0EE66EE24BE32B51
:102BB4000101024B032B0CD0E2C0E1FFE3C0E2FFB2
:102BC4002B0EE66E0001E24BE32B0101024B032BBB
:102BD4000A0E046E000E056EFCC000F0FDC001F08C
:102BE40060EC08F0300E0026E2C0E1FFE3C0E2FF33
:102BF40000C0E6FF0001E24BE32B0101024B032B73
:102C04000A0E046E000E056EFCC000F0FDC001F05B
:102C140060EC08F008C000F009C001F0300E002696
:102C2400E2C0E1FFE3C0E2FF00C0E6FF0001E24BC7
:102C3400E32B0101024B032B0001F6A71CD0800EED
:102C4400006E800EF519005C02E1F451000813E2F5
:102C5400E2C0E1FFE3C0E2FF200EE66EE24BE32BAD
:102C64000101024B032B010E0001F45F000EF55B22
:102C7400F451F511EDE110EF0EF0F7A3FCD0800E46
:102C8400FD19006E800E005C02E1000EFC5D0AE29C
:102C9400010EFC5D006E000EFD59016E0050F15FE7
:102CA4000150F25BF8C000F0F9C001F0FAC002F084
:102CB400FBC003F062EC0DF000C0FEF001C0FFF0B9
:102CC40002C000F103C001F1010EF36FF3510A0ACF
:102CD40037E0F3C000F0000E016E026E036E0036A2
:102CE4000090013602360336003600900136023673
:102CF4000336200E0024F66E420E0120F76E000EFD
:102D04000220F86E0900F5CF01F00900F5CF02F0BA
:102D14000900F5CF03F00900F5CF04F004500101D8
:102D2400015D09E10350005D06E102500001FF5D11
:102D340002E10150FE5D01E203D00001F32BC6D78E
:102D44000001F351F15D0101086F000E0001F25919
:102D54000101096F08C1F1F009C1F2F0FEC000F0F1
:102D6400FFC001F000C102F001C103F0ECEC0BF074
:102D740000C004F001C005F002C006F003C007F073
:102D8400F8C000F0F9C001F0FAC002F0FBC003F093
:102D9400CCEC06F000C004F101C005F102C006F15C
:102DA40003C007F108C10AF1C3EC08F004C104F040
:102DB40005C105F006C106F007C107F018EC04F0E0
:102DC400000E046E000E056E000E066E7E0E076E7B
:102DD40008EC02F062EC0DF000C0FEF001C0FFF060
:102DE40002C000F103C001F10001F151F21143E00E
:102DF4000A0E046E000E056E066E076EFEC000F02D
:102E0400FFC001F000C102F001C103F0EFEC04F0D7
:102E140008C000F009C001F00AC002F00BC003F0C2
:102E2400000E046E031808E10450021805E1045072
:102E3400011802E10050000A1EE100010A0E046EAE
:102E4400000E056E066E076EFEC000F0FFC001F0B6
:102E540000C102F001C103F0EFEC04F000C0FEF089
:102E640001C0FFF002C000F103C001F1010EF15FE7
:102E7400000EF25BB9D70001800E006E800EF219CD
:102E8400005C02E1F1510C0816E3F1C00AF1D0EC48
:102E940006F0F8C004F0F9C005F0FAC006F0FBC073
:102EA40007F008EC02F000C0F8F001C0F9F002C02D
:102EB400FAF003C0FBF0F8C000F0F9C001F0FAC06A
:102EC40002F0FBC003F0046A056A066A076AA1EC13
:102ED4000BF0000ED8A4010E006E0052D8B478D0C6
:102EE400F8C000F0F9C001F0FAC002F0FBC003F032
:102EF40062EC0DF0000E046E031808E10450021891
:102F040005E10450011802E10050000A61E1800E5D
:102F1400006E800E0001FD19005C02E1FC51010805
:102F240057E2FCC00AF1C3EC08F000C004F001C091
:102F340005F002C006F003C007F0F8C000F0F9C0C5
:102F440001F0FAC002F0FBC003F0A4EC0CF05F0E39
:102F5400046E700E056E090E066E810E076E65EC2A
:102F640006F0010ED8B0000E006E005206E0090E05
:102F74000001FC5F000EFD5B05D00001080EFC5F44
:102F8400000EFD5BFCC00AF1C3EC08F000C004F0C5
:102F940001C005F002C006F003C007F0F8C000F05D
:102FA400F9C001F0FAC002F0FBC003F0A4EC0CF08D
:102FB40062EC0DF000C0FEF001C0FFF002C000F1B1
:102FC40003C001F10001F86BF96BFA6BFB6B39D0AC
:102FD4000001F8C000F0F9C001F0FAC002F0FBC033
:102FE40003F062EC0DF000C0FEF001C0FFF002C07F
:102FF40000F103C001F1FEC000F0FFC001F000C108
:1030040002F001C103F0ECEC0BF000C004F001C0CD
:1030140005F002C006F003C007F0F8C000F0F9C0E4
:1030240001F0FAC002F0FBC003F0CCEC06F000C0E3
:10303400F8F001C0F9F002C0FAF003C0FBF0FC6B39
:10304400FD6B010EF36FF3510A0A37E0F3C000F091
:10305400000E016E026E036E0036009001360236D9
:10306400033600360090013602360336200E002463
:10307400F66E420E0120F76E000E0220F86E090073
:10308400F5CF01F00900F5CF02F00900F5CF03F008
:103094000900F5CF04F004500101015D09E103507A
:1030A400005D06E102500001FF5D02E10150FE5D9A
:1030B40001E203D00001F32BC6D70001F351F1253F
:1030C400006E000EF221016EFC510026FD5101221A
:1030D4000050F45F0150F55BF7B704D0F151F211E1
:1030E40001E104D0010EF45F000EF55B030EF6154A
:1030F400006EF7C001F0000E01160050011004E04C
:10310400010EF45F000EF55BF6A53FD0F6A313D0D5
:10311400F6A103D02D0EEB6F02D02B0EEB6FE2C0A5
:10312400E1FFE3C0E2FFEBC0E6FFE24BE32B01016A
:10313400024B032B0ED00001F6A10BD0E2C0E1FF3D
:10314400E3C0E2FF200EE66EE24BE32B0101024BEB
:10315400032B800E006E800E0001F519005C02E165
:10316400F451000811E2E2C0E1FFE3C0E2FF300ED7
:10317400E66EE24BE32B0101024B032B010E00012F
:10318400F45F000EF55BE5D73FD0F6B71AD0800E9A
:10319400006E800EF519005C02E1F451000811E2A2
:1031A400E2C0E1FFE3C0E2FF200EE66EE24BE32B58
:1031B4000101024B032B010E0001F45F000EF55BCD
:1031C400E6D7F6A313D0F6A103D02D0EEC6F02D0F0
:1031D4002B0EEC6FE2C0E1FFE3C0E2FFECC0E6FFC0
:1031E400E24BE32B0101024B032B0ED00001F6A1AD
:1031F4000BD0E2C0E1FFE3C0E2FF200EE66EE24B3B
:10320400E32B0101024B032BF3C000F00001F30791
:1032140000524DE0F3C000F0000E016E026E036E2A
:10322400003600900136023603360036009001362F
:1032340002360336200E0024F66E420E0120F76E8D
:10324400000E0220F86E0900F5CF04F00900F5CF56
:1032540005F00900F5CF06F00900F5CF07F0FEC030
:1032640000F0FFC001F000C102F001C103F0EFEC77
:1032740004F00A0E046E000E056E066E076EEFEC87
:1032840004F008C000F009C001F00AC002F00BC04D
:1032940003F0300E0026E2C0E1FFE3C0E2FF00C00D
:1032A400E6FFE24BE32B0101024B032BADD7800E6B
:1032B400006E800E0001FD19005C02E1FC51000863
:1032C40011E2E2C0E1FFE3C0E2FF300EE66EE24B42
:1032D400E32B0101024B032B010E0001FC5F000EE6
:1032E400FD5BE5D7800E000A006E800EF219005CCB
:1032F40002E1F151080803E2080EF36F02D0F1C0B5
:10330400F3F0F351F15F000EF25BF35303E1F7B70F
:1033140001D00BD0E2C0E1FFE3C0E2FF2E0EE66E67
:10332400E24BE32B0101024B032BF3C00AF1C3EC84
:1033340008F0F8C004F0F9C005F0FAC006F0FBC0CC
:1033440007F018EC04F00BEC0CF000C0FEF001C028
:10335400FFF002C000F103C001F10001F3534EE09D
:10336400F307F3C000F0000E016E026E036E003628
:1033740000900136023603360036009001360236DC
:103384000336200E0024F66E420E0120F76E000E66
:103394000220F86E0900F5CF04F00900F5CF05F01E
:1033A4000900F5CF06F00900F5CF07F0FEC000F0E4
:1033B400FFC001F000C102F001C103F0EFEC04F022
:1033C4000A0E046E000E056E066E076EEFEC04F036
:1033D40008C000F009C001F00AC002F00BC003F0FD
:1033E400300E0026E2C0E1FFE3C0E2FF00C0E6FFCA
:1033F400E24BE32B0101024B032BAFD70001F15148
:10340400F21111E0E2C0E1FFE3C0E2FF300EE66E2C
:10341400E24BE32B0101024B032B010E0001F15F90
:10342400000EF25BEBD7F6A71CD0800E006E800E68
:10343400F519005C02E1F451000813E2E2C0E1FF77
:10344400E3C0E2FF200EE66EE24BE32B0101024BE8
:10345400032B010E0001F45F000EF55BF451F5112E
:10346400EDE110EF0EF0C00EF615016EF7C002F09C
:10347400000E0216000E021802E1000E0118D8A474
:1034840084D0F6A927D0E7C0E9FFE8C0EAFFEECF71
:1034940000F0EECF01F000C0E9FF01C0EAFFEECF7B
:1034A400FEF0EECFFFF0EECF00F1EECF01F1E7C07A
:1034B400E9FFE8C0EAFF040EEE24006E000EEE20E1
:1034C400016EE7C0E1FFE8C0E2FF00C0E6FF01C013
:1034D400E6FF2FD0E7C0E9FFE8C0EAFFEECF00F037
:1034E400EECF01F000C0E9FF01C0EAFFEECF00F02B
:1034F400EECF01F0000E01BEFF0E026E036E00C09F
:10350400FEF001C0FFF002C000F103C001F1E7C00A
:10351400E9FFE8C0EAFF020EEE24006E000EEE2082
:10352400016EE7C0E1FFE8C0E2FF00C0E6FF01C0B2
:10353400E6FF800E01010119006E800E005C09E1B6
:10354400000E005D06E1000E0001FF5D02E1000EC9
:10355400FE5D1AE20001030EF613000EF713006A73
:10356400016A026A036AFE51005EFF51015A0101B9
:103574000051025A0151035A00C0FEF001C0FFF08D
:1035840002C000F103C001F150D00001F6A927D018
:10359400E7C0E9FFE8C0EAFFEECF00F0EECF01F0AC
:1035A40000C0E9FF01C0EAFFEECFFEF0EECFFFF06E
:1035B400EECF00F1EECF01F1E7C0E9FFE8C0EAFF8A
:1035C400040EEE24006E000EEE20016EE7C0E1FF53
:1035D400E8C0E2FF00C0E6FF01C0E6FF26D0E7C076
:1035E400E9FFE8C0EAFFEECF00F0EECF01F000C043
:1035F400E9FF01C0EAFFEECFFEF0EECFFFF0000ED0
:103604000101006F016FE7C0E9FFE8C0EAFF020EA5
:10361400EE24006E000EEE20016EE7C0E1FFE8C06C
:10362400E2FF00C0E6FF01C0E6FF000E0001F21950
:1036340002E1000EF11912E1000E006E0101011900
:1036440009E10050001906E100500001FF1902E1F0
:10365400FE51000A03E10001F14BF22B0001C00E00
:10366400F615006E00C005F0BAD00001010EF36F2C
:10367400F3510A0A37E0F3C000F0000E016E026E47
:10368400036E003600900136023603360036009091
:10369400013602360336200E0024F66E420E012057
:1036A400F76E000E0220F86E0900F5CF01F0090054
:1036B400F5CF02F00900F5CF03F00900F5CF04F0CF
:1036C40004500101015D09E10350005D06E102506F
:1036D4000001FF5D02E10150FE5D01E203D0000143
:1036E400F32BC6D78BD00001010EF36FF351080AF8
:1036F40037E0F3C000F0000E016E026E036E003678
:103704000090013602360336003600900136023648
:103714000336480E0024F66E420E0120F76E000EAA
:103724000220F86E0900F5CF01F00900F5CF02F090
:103734000900F5CF03F00900F5CF04F004500101AE
:10374400015D09E10350005D06E102500001FF5DE7
:1037540002E10150FE5D01E203D00001F32BC6D764
:103764004DD00001010EF36FF3510C0A37E0F3C0A2
:1037740000F0000E016E026E036E003600900136FA
:103784000236033600360090013602360336F00E58
:103794000024F66E410E0120F76E000E0220F86E32
:1037A4000900F5CF01F00900F5CF02F00900F5CFCB
:1037B40003F00900F5CF04F004500101015D09E1B3
:1037C4000350005D06E102500001FF5D02E101507B
:1037D400FE5D01E203D00001F32BC6D70FD00550E4
:1037E400000AD8B442D70550C00AD8B43ED7055011
:1037F400800AD8B478D70550400AB3E00001800E9F
:10380400006E800EF219005C02E1F151F35D03E2F7
:10381400F1C0F3F00DD0800EF219006E800E005C42
:1038240002E1F351F15D04E2F3C0F1F0000EF26F36
:10383400F451F5110EE0030EF615006EF7C001F019
:10384400000E01160050011004E0010EF45F000E9A
:10385400F55B800EF219006E800EF519005C02E132
:10386400F451F15D05E2F151F45FF251F55B02D0E0
:10387400F46BF56BC40EF615016EF751080B026E6E
:103884000250080A02E1400E011808E1F451F51152
:1038940004E0010EF45F000EF55B1CD0C00EF615BB
:1038A400016EF751080B026E0250080A02E1800E05
:1038B400011810E1800E006E800EF519005C02E123
:1038C400F451020805E2020EF45F000EF55B02D02B
:1038D400F46BF56BF6A567D0F6A313D0F6A103D06D
:1038E4002D0EED6F02D02B0EED6FE2C0E1FFE3C0B1
:1038F400E2FFEDC0E6FFE24BE32B0101024B032B99
:103904003AD00001F6A10CD0E2C0E1FFE3C0E2FF2F
:10391400200EE66EE24BE32B0101024B032B2BD06E
:10392400C00E0001F615016EF751080B026E02502D
:10393400080A02E1800E01181EE1E2C0E1FFE3C0C3
:10394400E2FF300EE66EE24BE32B0101024B032B48
:103954000001F6AB03D0580EEE6F02D0780EEE6F76
:10396400E2C0E1FFE3C0E2FFEEC0E6FFE24BE32B7F
:103974000101024B032B0001F451F51113E0E2C0E5
:10398400E1FFE3C0E2FF300EE66EE24BE32B010100
:10399400024B032B010E0001F45F000EF55BF451A2
:1039A400F511EDE17FD0F451F51115E0F6B713D020
:1039B400E2C0E1FFE3C0E2FF200EE66EE24BE32B40
:1039C4000101024B032B010E0001F45F000EF55BB5
:1039D400F451F511EDE1F6A313D0F6A103D02D0EA9
:1039E400EF6F02D02B0EEF6FE2C0E1FFE3C0E2FF06
:1039F400EFC0E6FFE24BE32B0101024B032B0ED099
:103A04000001F6A10BD0E2C0E1FFE3C0E2FF200E0B
:103A1400E66EE24BE32B0101024B032BC00E0001C7
:103A2400F615016EF751080B026E0250080A02E106
:103A3400400E01180CE1E2C0E1FFE3C0E2FF300EEA
:103A4400E66EE24BE32B0101024B032B2BD0C00E9D
:103A54000001F615016EF751080B026E0250080AB8
:103A640002E1800E01181EE1E2C0E1FFE3C0E2FFC3
:103A7400300EE66EE24BE32B0101024B032B0001F7
:103A8400F6AB03D0580EF06F02D0780EF06FE2C0A0
:103A9400E1FFE3C0E2FFF0C0E6FFE24BE32B0101EC
:103AA400024B032B800E006E800E0001F219005CA5
:103AB40002E1F151F35D0CE2E2C0E1FFE3C0E2FF99
:103AC400300EE66EE24BE32B0101024B032BEAD7E7
:103AD400F1C000F0F2C001F0010E0001F15F000E30
:103AE400F25B00500110D8B430D1C00EF615006E50
:103AF40000C004F10DD10001F1C000F0F2C001F0EA
:103B0400000EF2BFFF0E026E036E00360090013607
:103B14000236033600360090013602360336200E94
:103B24000024F66E420E0120F76E000E0220F86E9D
:103B34000900F5CF04F00900F5CF05F00900F5CF31
:103B440006F00900F5CF07F0FEC000F0FFC001F059
:103B540000C102F001C103F0EFEC04F00A0E046EA0
:103B6400000E056E066E076EEFEC04F008C000F060
:103B740009C001F00AC002F00BC003F0300E0024AB
:103B8400F36FD6D00001F6AB45D0F1C000F0F2C01F
:103B940001F0000EF2BFFF0E026E036E00360090BD
:103BA40001360236033600360090013602360336FB
:103BB400480E0024F66E420E0120F76E000E02201D
:103BC400F86E0900F5CF04F00900F5CF05F00900FF
:103BD400F5CF06F00900F5CF07F0FEC000F0FFC0F6
:103BE40001F000C102F001C103F0EFEC04F00F0E8C
:103BF4000016000E011602160316790E0024F66E46
:103C0400420E0120F76E000E0220F86E0900F5CF77
:103C1400F3F044D0F1C000F0F2C001F0000EF2BFA6
:103C2400FF0E026E036E0036009001360236033634
:103C340000360090013602360336480E0024F66E34
:103C4400420E0120F76E000E0220F86E0900F5CF37
:103C540004F00900F5CF05F00900F5CF06F00900DE
:103C6400F5CF07F0FEC000F0FFC001F000C102F084
:103C740001C103F0EFEC04F00F0E0016000E011664
:103C840002160316680E0024F66E420E0120F76E2B
:103C9400000E0220F86E0900F5CFF3F049D00001C0
:103CA400F1C000F0F2C001F0000EF2BFFF0E026E90
:103CB400036E00360090013602360336003600905B
:103CC400013602360336F00E0024F66E410E012052
:103CD400F76E000E0220F86E0900F5CF04F009001B
:103CE400F5CF05F00900F5CF06F00900F5CF07F090
:103CF400FEC000F0FFC001F000C102F001C103F0FA
:103D0400EFEC04F0070E0014F36F300EF32710D01D
:103D140001010451000AD8B4EED60451C00AD8B443
:103D2400EAD60451800AD8B42DD70451400AB7E02A
:103D3400E2C0E1FFE3C0E2FFF3C0E6FF0001E24BB3
:103D4400E32B0101024B032BC3D60001F6A71CD0C1
:103D5400800E006E800EF519005C02E1F45100083B
:103D640013E2E2C0E1FFE3C0E2FF200EE66EE24BA5
:103D7400E32B0101024B032B010E0001F45F000E43
:103D8400F55BF451F511EDE110EF0EF002C100F016
:063D940003C101F0120062
:0E3D9A00CBC000F0CCC001F0FFEC0BF012002B
:103DA800DC0E0001E06F000EE16FD7C0E2F0D8C072
:103DB800E3F0D9C0E4F0DAC0E5F0DBC0E6F0E00EED
:103DC800E76F000EE86F0AEC0EF000C0DEF001C0ED
:103DD800DFF00050D725E16E0150D821E26EE66A87
:0A3DE800DEC000F0DFC001F01200A1
:103DF200D7C004F0D8C005F004C002F005C003F03B
:103E0200044A052AD9C000F0DAC001F00001D94BFA
:103E1200DA2B00C0E9FF01C0EAFF02C0E1FF03C0E4
:103E2200E2FFEECFE6FF02C0E9FF03C0EAFFEE5277
:0E3E320001E0E2D7D7C000F0D8C001F01200C6
:103E40000900F5CFE6FF0006FBE10106F9E11200EB
:103E50000F0EC16E070EB46E938093829384F18E21
:103E600084908492969096928D6AF288F292F18C68
:103E7000F086F090F18AF188F092F0889D8A9D9802
:063E8000F28CF28E12002C
:103E8600AC0E0001CF6F090ED06F0F0ED16F010E71
:103E9600D26FA40ECB6F100ECC6F000ECD6F000E3E
:103EA600CE6F9A0EC76F100EC86F000EC96F000E48
:103EB600CA6FB60ED36F100ED46F000ED56F000EFC
:103EC600D66FAC8A900EAB6E948E949C9EAA03D04D
:083ED600AECF00F0FBD7120093
:103EDE000001DA6BD7C0E9FFD8C0EAFFEECFD9F008
:103EEE00D951000A0FE0D9C0E2F0FEEC0DF000014E
:103EFE00DA2BDA51D725E96E000ED821EA6EEECF15
:063F0E00D9F0EED712000D
:103F1400D7C0E9FFD8C0EAFFEE5211E0D7C0E9FFED
:103F2400D8C0EAFFD9C0D9FFDAC0DAFFEE50DE18F4
:103F340006E10001D74BD82BD94BDA2BE9D7D7C0F0
:103F4400E9FFD8C0EAFFD9C0D9FFDAC0DAFFDE50F2
:0C3F5400EE5C006E016A000E015A1200C3
:103F600048EC21F075DFB886020EB06E080EAF6E19
:103F7000AC8489DF030E0B6E8A0E0C6E550E0D6E2F
:103F80000D2EFED70C2EFCD70B2EFAD7000000000A
:103F90005B5216E0A00ED76F000ED86F8A0ED96F55
:103FA000420EDA6F000EDB6F59C0DCF05AC0DDF054
:103FB000FBDEA00ED76F000ED86F91DF5B6A84D056
:103FC0005C52D8B481D0BA0ED76F000ED86FAD0E48
:103FD000D96F000EDA6F0DDF510ED76F000ED86F5C
:103FE000BA0ED96F000EDA6F95DF000E011802E1EC
:103FF000000E001808E18D822B0E0001D76F000E15
:10400000D86F6DDF60D00001230ED76F000ED86F20
:10401000BA0ED96F000EDA6F7DDF000E011802E1D3
:10402000000E001808E18D921A0E0001D76F000EE5
:10403000D86F55DF48D00001480ED76F000ED86FFB
:10404000BA0ED96F000EDA6F65DF000E011802E1BB
:10405000000E001811E18D8081A407D03E0E0001F2
:10406000D76F000ED86F3BDF06D00001340ED76F3C
:10407000000ED86F34DF27D000015D0ED76F000E21
:10408000D86FBA0ED96F000EDA6F44DF000E011838
:1040900002E1000E001811E18D9081A407D0810E7D
:1040A0000001D76F000ED86F1ADF06D00001770E1F
:1040B000D76F000ED86F13DF06D000016F0ED76FD9
:1040C000000ED86F0CDF5C6A11D0950ED76F000E12
:1040D000D86F05DF020E9F6F12D08B0ED76F000EC8
:1040E000D86FFDDE020E9F6F0AD009D09F51000AE3
:1040F000ECE09F51010AF1E09F51020AF6E048D737
:02410000FFD7E7
:1042900010EE1AF0860E006E010E016E020EF66E22
:0E42A000410EF76E000EF86E20EC1FF01200BB
:09410200404C6C655F6F662600FD
:08410B00406C655F6F66260041
:09411300404C6C655F6F6E2600E4
:0A411C00404C6C652B5F6F6E2600AF
:0A412600404C6C652B5F6F662600AD
:09413000406C652B5F6F6E2600E8
:08413900406C655F6F6E26000B
:0241410000007C
:01414300007B
:01414400007A
:09414500406C652B5F6F662600DB
:01414E000070
:01414F00006F
:07415000286E756C6C29005C
:08415700404572726F722600F0
:0A415F00404C6C652B5F6F6E26006C
:0A416900404C6C652B5F6F6626006A
:0A417300404C6C652B5F6F66260060
:0A417D00404C6C652B5F6F6E26004E
:014187000235
:104188000000007F000020820000488500007A8837
:1041980000401C8C0050438F00247492809618961F
:1041A80020BC3E99286B6E9CF90215A0EC782DC1B5
:0441B800CAF249E21C
:1041BC000000007FCDCC4C7B0AD723786F1203759F
:1041CC0017B75171ACC5276EBD37066B95BF5667D7
:1041DC0077CC2B645F700961FFE65B5D08E53C3CC6
:0441EC006042221BF0
:1041F0000100000008000000400000000002000074
:1042000000100000008000000000040000002000FA
:104210000000000100000008000000400000000055
:10422000010000000A00000064000000E803000034
:1042300010270000A086010040420F0080969800E1
:0842400000E1F50500CA9A3BFC
:104248000100000010000000000100000010000044
:104258000000010000001000000000010000001034
:1042680030313233343536373839616263646566E4
:014278000045
:104279003031323334353637383941424344454693
:014289000034
:06428A00405325642600EC
:020000040030CA
:0E000000240C1E1EFF8081FF0FC00FE00F407A
:00000001FF
